{
  "contractName": "InvestmentBank",
  "abi": [
    {
      "anonymous": false,
      "inputs": [
        {
          "indexed": true,
          "internalType": "address",
          "name": "previousOwner",
          "type": "address"
        },
        {
          "indexed": true,
          "internalType": "address",
          "name": "newOwner",
          "type": "address"
        }
      ],
      "name": "OwnershipTransferred",
      "type": "event"
    },
    {
      "inputs": [],
      "name": "interestTokenAddress",
      "outputs": [
        {
          "internalType": "address",
          "name": "",
          "type": "address"
        }
      ],
      "stateMutability": "view",
      "type": "function",
      "constant": true
    },
    {
      "inputs": [],
      "name": "owner",
      "outputs": [
        {
          "internalType": "address",
          "name": "",
          "type": "address"
        }
      ],
      "stateMutability": "view",
      "type": "function",
      "constant": true
    },
    {
      "inputs": [],
      "name": "renounceOwnership",
      "outputs": [],
      "stateMutability": "nonpayable",
      "type": "function"
    },
    {
      "inputs": [
        {
          "internalType": "address",
          "name": "newOwner",
          "type": "address"
        }
      ],
      "name": "transferOwnership",
      "outputs": [],
      "stateMutability": "nonpayable",
      "type": "function"
    },
    {
      "inputs": [
        {
          "internalType": "bytes32",
          "name": "ticker",
          "type": "bytes32"
        },
        {
          "internalType": "address",
          "name": "tokenAddress",
          "type": "address"
        },
        {
          "internalType": "uint256",
          "name": "tokenInterest",
          "type": "uint256"
        }
      ],
      "name": "addToken",
      "outputs": [],
      "stateMutability": "nonpayable",
      "type": "function"
    },
    {
      "inputs": [
        {
          "internalType": "bytes32",
          "name": "ticker",
          "type": "bytes32"
        },
        {
          "internalType": "uint256",
          "name": "amount",
          "type": "uint256"
        }
      ],
      "name": "deposit",
      "outputs": [],
      "stateMutability": "nonpayable",
      "type": "function"
    },
    {
      "inputs": [
        {
          "internalType": "bytes32",
          "name": "ticker",
          "type": "bytes32"
        },
        {
          "internalType": "uint256",
          "name": "amount",
          "type": "uint256"
        }
      ],
      "name": "withdraw",
      "outputs": [],
      "stateMutability": "nonpayable",
      "type": "function"
    },
    {
      "inputs": [
        {
          "internalType": "address",
          "name": "_address",
          "type": "address"
        }
      ],
      "name": "setInterestTokenAddress",
      "outputs": [],
      "stateMutability": "nonpayable",
      "type": "function"
    },
    {
      "inputs": [],
      "name": "getDeposits",
      "outputs": [
        {
          "internalType": "string[]",
          "name": "",
          "type": "string[]"
        }
      ],
      "stateMutability": "view",
      "type": "function",
      "constant": true
    },
    {
      "inputs": [
        {
          "internalType": "uint256",
          "name": "v",
          "type": "uint256"
        }
      ],
      "name": "uintToString",
      "outputs": [
        {
          "internalType": "string",
          "name": "",
          "type": "string"
        }
      ],
      "stateMutability": "pure",
      "type": "function",
      "constant": true
    },
    {
      "inputs": [
        {
          "internalType": "bytes32",
          "name": "_bytes32",
          "type": "bytes32"
        }
      ],
      "name": "bytes32ToStr",
      "outputs": [
        {
          "internalType": "string",
          "name": "",
          "type": "string"
        }
      ],
      "stateMutability": "pure",
      "type": "function",
      "constant": true
    }
  ],
  "bytecode": "0x608060405234801561001057600080fd5b5061002d61002261003260201b60201c565b61003a60201b60201c565b6100fe565b600033905090565b60008060009054906101000a900473ffffffffffffffffffffffffffffffffffffffff169050816000806101000a81548173ffffffffffffffffffffffffffffffffffffffff021916908373ffffffffffffffffffffffffffffffffffffffff1602179055508173ffffffffffffffffffffffffffffffffffffffff168173ffffffffffffffffffffffffffffffffffffffff167f8be0079c531659141344cd1fd0a4f28419497f9722a3daafe3b4186f6b6457e060405160405180910390a35050565b611da28061010d6000396000f3fe608060405234801561001057600080fd5b50600436106100a95760003560e01c80638da5cb5b116100715780638da5cb5b1461012a578063974765a114610148578063d28b401914610164578063e939567914610182578063ef0b2368146101b2578063f2fde38b146101e2576100a9565b8063040cf020146100ae5780631de26e16146100ca57806347b1b5a4146100e65780636b149d8714610102578063715018a614610120575b600080fd5b6100c860048036038101906100c3919061158d565b6101fe565b005b6100e460048036038101906100df919061158d565b6105cb565b005b61010060048036038101906100fb91906114c3565b6108b9565b005b61010a610979565b6040516101179190611998565b60405180910390f35b610128610b9f565b005b610132610c27565b60405161013f919061191d565b60405180910390f35b610162600480360381019061015d919061153e565b610c50565b005b61016c610d8c565b604051610179919061191d565b60405180910390f35b61019c600480360381019061019791906115c9565b610db2565b6040516101a991906119ba565b60405180910390f35b6101cc60048036038101906101c79190611515565b611051565b6040516101d991906119ba565b60405180910390f35b6101fc60048036038101906101f791906114c3565b611199565b005b81600073ffffffffffffffffffffffffffffffffffffffff166002600083815260200190815260200160002060000160009054906101000a900473ffffffffffffffffffffffffffffffffffffffff1673ffffffffffffffffffffffffffffffffffffffff16141561026f57600080fd5b81600160003373ffffffffffffffffffffffffffffffffffffffff1673ffffffffffffffffffffffffffffffffffffffff16815260200190815260200160002060008581526020019081526020016000206001015410156102cf57600080fd5b60006102db8484611291565b905080600460009054906101000a900473ffffffffffffffffffffffffffffffffffffffff1673ffffffffffffffffffffffffffffffffffffffff166370a08231306040518263ffffffff1660e01b8152600401610339919061191d565b60206040518083038186803b15801561035157600080fd5b505afa158015610365573d6000803e3d6000fd5b505050506040513d601f19601f8201168201806040525081019061038991906115f2565b101561039457600080fd5b6103fa83600160003373ffffffffffffffffffffffffffffffffffffffff1673ffffffffffffffffffffffffffffffffffffffff16815260200190815260200160002060008781526020019081526020016000206001015461134c90919063ffffffff16565b600160003373ffffffffffffffffffffffffffffffffffffffff1673ffffffffffffffffffffffffffffffffffffffff1681526020019081526020016000206000868152602001908152602001600020600101819055506002600085815260200190815260200160002060000160009054906101000a900473ffffffffffffffffffffffffffffffffffffffff1673ffffffffffffffffffffffffffffffffffffffff1663a9059cbb33856040518363ffffffff1660e01b81526004016104c292919061196f565b602060405180830381600087803b1580156104dc57600080fd5b505af11580156104f0573d6000803e3d6000fd5b505050506040513d601f19601f8201168201806040525081019061051491906114ec565b50600460009054906101000a900473ffffffffffffffffffffffffffffffffffffffff1673ffffffffffffffffffffffffffffffffffffffff1663a9059cbb33836040518363ffffffff1660e01b815260040161057292919061196f565b602060405180830381600087803b15801561058c57600080fd5b505af11580156105a0573d6000803e3d6000fd5b505050506040513d601f19601f820116820180604052508101906105c491906114ec565b5050505050565b81600073ffffffffffffffffffffffffffffffffffffffff166002600083815260200190815260200160002060000160009054906101000a900473ffffffffffffffffffffffffffffffffffffffff1673ffffffffffffffffffffffffffffffffffffffff16141561063c57600080fd5b816002600085815260200190815260200160002060000160009054906101000a900473ffffffffffffffffffffffffffffffffffffffff1673ffffffffffffffffffffffffffffffffffffffff166370a08231336040518263ffffffff1660e01b81526004016106ac919061191d565b60206040518083038186803b1580156106c457600080fd5b505afa1580156106d8573d6000803e3d6000fd5b505050506040513d601f19601f820116820180604052508101906106fc91906115f2565b101561070757600080fd5b6000600160003373ffffffffffffffffffffffffffffffffffffffff1673ffffffffffffffffffffffffffffffffffffffff16815260200190815260200160002060008581526020019081526020016000206001015490506040518060400160405280428152602001610783858461136290919063ffffffff16565b815250600160003373ffffffffffffffffffffffffffffffffffffffff1673ffffffffffffffffffffffffffffffffffffffff168152602001908152602001600020600086815260200190815260200160002060008201518160000155602082015181600101559050506002600085815260200190815260200160002060000160009054906101000a900473ffffffffffffffffffffffffffffffffffffffff1673ffffffffffffffffffffffffffffffffffffffff166323b872dd3330866040518463ffffffff1660e01b815260040161086093929190611938565b602060405180830381600087803b15801561087a57600080fd5b505af115801561088e573d6000803e3d6000fd5b505050506040513d601f19601f820116820180604052508101906108b291906114ec565b5050505050565b6108c1611378565b73ffffffffffffffffffffffffffffffffffffffff166108df610c27565b73ffffffffffffffffffffffffffffffffffffffff1614610935576040517f08c379a000000000000000000000000000000000000000000000000000000000815260040161092c906119fc565b60405180910390fd5b80600460006101000a81548173ffffffffffffffffffffffffffffffffffffffff021916908373ffffffffffffffffffffffffffffffffffffffff16021790555050565b6060600060038054905067ffffffffffffffff8111156109c2577f4e487b7100000000000000000000000000000000000000000000000000000000600052604160045260246000fd5b6040519080825280602002602001820160405280156109f557816020015b60608152602001906001900390816109e05790505b50905060005b600380549050811015610b9757600060038281548110610a44577f4e487b7100000000000000000000000000000000000000000000000000000000600052603260045260246000fd5b906000526020600020015490506000600160003373ffffffffffffffffffffffffffffffffffffffff1673ffffffffffffffffffffffffffffffffffffffff16815260200190815260200160002060008381526020019081526020016000206001015490506000600160003373ffffffffffffffffffffffffffffffffffffffff1673ffffffffffffffffffffffffffffffffffffffff1681526020019081526020016000206000848152602001908152602001600020600001549050610b0a83611051565b610b1383610db2565b610b1c83610db2565b604051602001610b2e939291906118cb565b604051602081830303815290604052858581518110610b76577f4e487b7100000000000000000000000000000000000000000000000000000000600052603260045260246000fd5b60200260200101819052505050508080610b8f90611c27565b9150506109fb565b508091505090565b610ba7611378565b73ffffffffffffffffffffffffffffffffffffffff16610bc5610c27565b73ffffffffffffffffffffffffffffffffffffffff1614610c1b576040517f08c379a0000000000000000000000000000000000000000000000000000000008152600401610c12906119fc565b60405180910390fd5b610c256000611380565b565b60008060009054906101000a900473ffffffffffffffffffffffffffffffffffffffff16905090565b610c58611378565b73ffffffffffffffffffffffffffffffffffffffff16610c76610c27565b73ffffffffffffffffffffffffffffffffffffffff1614610ccc576040517f08c379a0000000000000000000000000000000000000000000000000000000008152600401610cc3906119fc565b60405180910390fd5b60405180604001604052808373ffffffffffffffffffffffffffffffffffffffff168152602001828152506002600085815260200190815260200160002060008201518160000160006101000a81548173ffffffffffffffffffffffffffffffffffffffff021916908373ffffffffffffffffffffffffffffffffffffffff160217905550602082015181600101559050506003839080600181540180825580915050600190039060005260206000200160009091909190915055505050565b600460009054906101000a900473ffffffffffffffffffffffffffffffffffffffff1681565b606060006064905060008167ffffffffffffffff811115610dfc577f4e487b7100000000000000000000000000000000000000000000000000000000600052604160045260246000fd5b6040519080825280601f01601f191660200182016040528015610e2e5781602001600182028036833780820191505090505b50905060005b60008514610ee6576000600a86610e4b9190611c70565b9050600a86610e5a9190611ae3565b9550806030610e699190611a8d565b60f81b838380610e7890611c27565b945081518110610eb1577f4e487b7100000000000000000000000000000000000000000000000000000000600052603260045260246000fd5b60200101907effffffffffffffffffffffffffffffffffffffffffffffffffffffffffffff1916908160001a90535050610e34565b60008167ffffffffffffffff811115610f28577f4e487b7100000000000000000000000000000000000000000000000000000000600052604160045260246000fd5b6040519080825280601f01601f191660200182016040528015610f5a5781602001600182028036833780820191505090505b50905060005b8281101561103e578360018285610f779190611b6e565b610f819190611b6e565b81518110610fb8577f4e487b7100000000000000000000000000000000000000000000000000000000600052603260045260246000fd5b602001015160f81c60f81b828281518110610ffc577f4e487b7100000000000000000000000000000000000000000000000000000000600052603260045260246000fd5b60200101907effffffffffffffffffffffffffffffffffffffffffffffffffffffffffffff1916908160001a905350808061103690611c27565b915050610f60565b5060008190508095505050505050919050565b60606000602067ffffffffffffffff811115611096577f4e487b7100000000000000000000000000000000000000000000000000000000600052604160045260246000fd5b6040519080825280601f01601f1916602001820160405280156110c85781602001600182028036833780820191505090505b50905060005b602081101561118f57838160208110611110577f4e487b7100000000000000000000000000000000000000000000000000000000600052603260045260246000fd5b1a60f81b82828151811061114d577f4e487b7100000000000000000000000000000000000000000000000000000000600052603260045260246000fd5b60200101907effffffffffffffffffffffffffffffffffffffffffffffffffffffffffffff1916908160001a905350808061118790611c27565b9150506110ce565b5080915050919050565b6111a1611378565b73ffffffffffffffffffffffffffffffffffffffff166111bf610c27565b73ffffffffffffffffffffffffffffffffffffffff1614611215576040517f08c379a000000000000000000000000000000000000000000000000000000000815260040161120c906119fc565b60405180910390fd5b600073ffffffffffffffffffffffffffffffffffffffff168173ffffffffffffffffffffffffffffffffffffffff161415611285576040517f08c379a000000000000000000000000000000000000000000000000000000000815260040161127c906119dc565b60405180910390fd5b61128e81611380565b50565b600080600160003373ffffffffffffffffffffffffffffffffffffffff1673ffffffffffffffffffffffffffffffffffffffff168152602001908152602001600020600085815260200190815260200160002060000154905060004290506000611304838361134c90919063ffffffff16565b90506113418561133383600260008b81526020019081526020016000206001015461144490919063ffffffff16565b61144490919063ffffffff16565b935050505092915050565b6000818361135a9190611b6e565b905092915050565b600081836113709190611a8d565b905092915050565b600033905090565b60008060009054906101000a900473ffffffffffffffffffffffffffffffffffffffff169050816000806101000a81548173ffffffffffffffffffffffffffffffffffffffff021916908373ffffffffffffffffffffffffffffffffffffffff1602179055508173ffffffffffffffffffffffffffffffffffffffff168173ffffffffffffffffffffffffffffffffffffffff167f8be0079c531659141344cd1fd0a4f28419497f9722a3daafe3b4186f6b6457e060405160405180910390a35050565b600081836114529190611b14565b905092915050565b60008135905061146981611d10565b92915050565b60008151905061147e81611d27565b92915050565b60008135905061149381611d3e565b92915050565b6000813590506114a881611d55565b92915050565b6000815190506114bd81611d55565b92915050565b6000602082840312156114d557600080fd5b60006114e38482850161145a565b91505092915050565b6000602082840312156114fe57600080fd5b600061150c8482850161146f565b91505092915050565b60006020828403121561152757600080fd5b600061153584828501611484565b91505092915050565b60008060006060848603121561155357600080fd5b600061156186828701611484565b93505060206115728682870161145a565b925050604061158386828701611499565b9150509250925092565b600080604083850312156115a057600080fd5b60006115ae85828601611484565b92505060206115bf85828601611499565b9150509250929050565b6000602082840312156115db57600080fd5b60006115e984828501611499565b91505092915050565b60006020828403121561160457600080fd5b6000611612848285016114ae565b91505092915050565b600061162783836116b3565b905092915050565b61163881611ba2565b82525050565b600061164982611a2c565b6116538185611a4f565b93508360208202850161166585611a1c565b8060005b858110156116a15784840389528151611682858261161b565b945061168d83611a42565b925060208a01995050600181019050611669565b50829750879550505050505092915050565b60006116be82611a37565b6116c88185611a60565b93506116d8818560208601611bf4565b6116e181611cff565b840191505092915050565b60006116f782611a37565b6117018185611a71565b9350611711818560208601611bf4565b61171a81611cff565b840191505092915050565b600061173082611a37565b61173a8185611a82565b935061174a818560208601611bf4565b80840191505092915050565b6000611763602683611a71565b91507f4f776e61626c653a206e6577206f776e657220697320746865207a65726f206160008301527f64647265737300000000000000000000000000000000000000000000000000006020830152604082019050919050565b60006117c9600c83611a82565b91507f204465706f73697465643a2000000000000000000000000000000000000000006000830152600c82019050919050565b6000611809602083611a71565b91507f4f776e61626c653a2063616c6c6572206973206e6f7420746865206f776e65726000830152602082019050919050565b6000611849600983611a82565b91507f42616c616e63653a2000000000000000000000000000000000000000000000006000830152600982019050919050565b6000611889600383611a82565b91507f20232000000000000000000000000000000000000000000000000000000000006000830152600382019050919050565b6118c581611bea565b82525050565b60006118d78286611725565b91506118e28261187c565b91506118ed8261183c565b91506118f98285611725565b9150611904826117bc565b91506119108284611725565b9150819050949350505050565b6000602082019050611932600083018461162f565b92915050565b600060608201905061194d600083018661162f565b61195a602083018561162f565b61196760408301846118bc565b949350505050565b6000604082019050611984600083018561162f565b61199160208301846118bc565b9392505050565b600060208201905081810360008301526119b2818461163e565b905092915050565b600060208201905081810360008301526119d481846116ec565b905092915050565b600060208201905081810360008301526119f581611756565b9050919050565b60006020820190508181036000830152611a15816117fc565b9050919050565b6000819050602082019050919050565b600081519050919050565b600081519050919050565b6000602082019050919050565b600082825260208201905092915050565b600082825260208201905092915050565b600082825260208201905092915050565b600081905092915050565b6000611a9882611bea565b9150611aa383611bea565b9250827fffffffffffffffffffffffffffffffffffffffffffffffffffffffffffffffff03821115611ad857611ad7611ca1565b5b828201905092915050565b6000611aee82611bea565b9150611af983611bea565b925082611b0957611b08611cd0565b5b828204905092915050565b6000611b1f82611bea565b9150611b2a83611bea565b9250817fffffffffffffffffffffffffffffffffffffffffffffffffffffffffffffffff0483118215151615611b6357611b62611ca1565b5b828202905092915050565b6000611b7982611bea565b9150611b8483611bea565b925082821015611b9757611b96611ca1565b5b828203905092915050565b6000611bad82611bca565b9050919050565b60008115159050919050565b6000819050919050565b600073ffffffffffffffffffffffffffffffffffffffff82169050919050565b6000819050919050565b60005b83811015611c12578082015181840152602081019050611bf7565b83811115611c21576000848401525b50505050565b6000611c3282611bea565b91507fffffffffffffffffffffffffffffffffffffffffffffffffffffffffffffffff821415611c6557611c64611ca1565b5b600182019050919050565b6000611c7b82611bea565b9150611c8683611bea565b925082611c9657611c95611cd0565b5b828206905092915050565b7f4e487b7100000000000000000000000000000000000000000000000000000000600052601160045260246000fd5b7f4e487b7100000000000000000000000000000000000000000000000000000000600052601260045260246000fd5b6000601f19601f8301169050919050565b611d1981611ba2565b8114611d2457600080fd5b50565b611d3081611bb4565b8114611d3b57600080fd5b50565b611d4781611bc0565b8114611d5257600080fd5b50565b611d5e81611bea565b8114611d6957600080fd5b5056fea264697066735822122064d31a63a169ba1bc402d10e3948c5a6cb32647ceff128b694eeed241ec2febb64736f6c63430008000033",
  "immutableReferences": {},
  "source": "pragma solidity ^0.8.0;\r\n\r\nimport \"@openzeppelin/contracts/access/Ownable.sol\";\r\nimport \"@openzeppelin/contracts/utils/math/SafeMath.sol\";\r\nimport \"@openzeppelin/contracts/token/ERC20/IERC20.sol\";\r\n\r\ncontract InvestmentBank is Ownable {\r\n\r\n    using SafeMath for uint;\r\n\r\n    mapping(address => mapping(bytes32 => Deposit)) internal deposits;\r\n\r\n    mapping(bytes32 => Token) internal tokenMapping;\r\n\r\n    bytes32[] internal tokenList;\r\n    \r\n    address public interestTokenAddress;\r\n\r\n    modifier tokenExists(bytes32 ticker) {\r\n        require(tokenMapping[ticker].tokenAddress != address(0));\r\n        _;\r\n    }\r\n\r\n    struct Deposit {\r\n        uint depositTime;\r\n        uint depositValue;\r\n    }\r\n\r\n    struct Token {\r\n        address tokenAddress;\r\n        uint tokenInterest;\r\n    }\r\n\r\n    // Owner can add new tokens to the bank.\r\n    function addToken(bytes32 ticker, address tokenAddress, uint tokenInterest) onlyOwner external {\r\n        tokenMapping[ticker] = Token(tokenAddress, tokenInterest);\r\n        tokenList.push(ticker);\r\n    }\r\n\r\n    // Users can deposit tokens that have been added to the bank.\r\n    function deposit(bytes32 ticker, uint amount) external tokenExists(ticker) {\r\n        require(IERC20(tokenMapping[ticker].tokenAddress).balanceOf(msg.sender) >= amount);\r\n        uint alreadyDeposited = deposits[msg.sender][ticker].depositValue;\r\n        deposits[msg.sender][ticker] = Deposit(block.timestamp, alreadyDeposited.add(amount));\r\n        IERC20(tokenMapping[ticker].tokenAddress).transferFrom(msg.sender, address(this), amount);\r\n    }\r\n\r\n    // Users can withdraw tokens and the interest is paid at the time of withdrawal.\r\n    function withdraw(bytes32 ticker, uint amount) external tokenExists(ticker) {\r\n        require(deposits[msg.sender][ticker].depositValue >= amount);\r\n        uint interest = calculateInterest(ticker, amount);\r\n        require(IERC20(interestTokenAddress).balanceOf(address(this)) >= interest);\r\n        deposits[msg.sender][ticker].depositValue = deposits[msg.sender][ticker].depositValue.sub(amount);\r\n        IERC20(tokenMapping[ticker].tokenAddress).transfer(msg.sender, amount);\r\n        IERC20(interestTokenAddress).transfer(msg.sender, interest);\r\n    }\r\n\r\n    // Owner can change the address for interest token.\r\n    function setInterestTokenAddress(address _address) external onlyOwner{\r\n        interestTokenAddress = _address;\r\n    }\r\n\r\n    // This function calculates the amount of interest tokens paid at the time of withdrawal.\r\n    function calculateInterest(bytes32 ticker, uint amount) internal view returns(uint) {\r\n        uint depositTime = deposits[msg.sender][ticker].depositTime;\r\n        uint currentTime = block.timestamp;\r\n        uint interestTime = currentTime.sub(depositTime);\r\n        return((tokenMapping[ticker].tokenInterest.mul(interestTime)).mul(amount));\r\n    }\r\n\r\n    // Returns all deposits of calling account.\r\n    function getDeposits() view external returns(string[] memory) {\r\n        string[] memory returnData = new string[](tokenList.length);\r\n        \r\n        for(uint i = 0; i < tokenList.length; i++) {\r\n            bytes32 token = tokenList[i];\r\n            uint value = deposits[msg.sender][token].depositValue;\r\n            uint time = deposits[msg.sender][token].depositTime;\r\n            returnData[i] = (string(abi.encodePacked(\r\n                            bytes32ToStr(token), \" # \",\r\n                            \"Balance: \", uintToString(value), \r\n                            \" Deposited: \", uintToString(time) \r\n                             )));\r\n        }\r\n        return returnData;\r\n    }\r\n\r\n    // Helper functions\r\n\r\n    function uintToString(uint v) public pure returns (string memory) {\r\n        uint maxlength = 100;\r\n        bytes memory reversed = new bytes(maxlength);\r\n        uint i = 0;\r\n        while (v != 0) {\r\n            uint remainder = v % 10;\r\n            v = v / 10;\r\n            reversed[i++] = bytes1(uint8(48 + remainder));\r\n        }\r\n        bytes memory s = new bytes(i); // i + 1 is inefficient\r\n        for (uint j = 0; j < i; j++) {\r\n            s[j] = reversed[i - j - 1]; // to avoid the off-by-one error\r\n        }\r\n        string memory str = string(s);  // memory isn't implicitly convertible to storage\r\n        return str;\r\n    }\r\n\r\n    function bytes32ToStr(bytes32 _bytes32) public pure returns (string memory) {\r\n        bytes memory bytesArray = new bytes(32);\r\n        for (uint256 i; i < 32; i++) {\r\n            bytesArray[i] = _bytes32[i];\r\n        }\r\n        return string(bytesArray);\r\n    }\r\n}",
  "sourcePath": "C:/Users/Anonymous/bc/investment-bank-solidity-react/src/contracts/InvestmentBank.sol",
  "compiler": {
    "name": "solc",
    "version": "0.8.0+commit.c7dfd78e.Emscripten.clang"
  },
  "schemaVersion": "3.4.1",
  "updatedAt": "2021-08-03T15:12:05.972Z",
  "networkType": "ethereum",
  "devdoc": {
    "kind": "dev",
    "methods": {
      "owner()": {
        "details": "Returns the address of the current owner."
      },
      "renounceOwnership()": {
        "details": "Leaves the contract without owner. It will not be possible to call `onlyOwner` functions anymore. Can only be called by the current owner. NOTE: Renouncing ownership will leave the contract without an owner, thereby removing any functionality that is only available to the owner."
      },
      "transferOwnership(address)": {
        "details": "Transfers ownership of the contract to a new account (`newOwner`). Can only be called by the current owner."
      }
    },
    "version": 1
  },
  "userdoc": {
    "kind": "user",
    "methods": {},
    "version": 1
  }
}